:1010000044EF37F00031323346343536453738391E
:0810100044413042432000007E
:106B3A00838E1200839E120094920C0EBD6E120078
:106B4A0094940C0EBD6E1200016EACA2FED701C069
:046B5A00ADFF120079
:106B5F00456E7465722050494E206E756D62657278
:106B6F00203A20200092800F0EC16E9FEC35F0F777
:106B7F00EC35F097EC39F044EC3DF0F7D7949C945A
:106B8F008E240EAC6E900EAB6E080EB86E4D0EAF1F
:106B9F006E000EB06E9E98120083887D0E016EAC53
:106BAF000EE82EFED7012EFCD783987D0E016EAC1A
:106BBF000EE82EFED7012EFCD712005D505E105F3F
:106BCF0010D8B406D0000E5D1A000E5E1A800E5F4C
:106BDF001A5DC05DF05EC05EF05FC05FF0120092A4
:106BEF008892960F0EC16E8098809608D08086008E
:106BFF000E026E640E016E1FEC36F0120080A812AA
:106C0F0000F5D7456E7465722050494E206E756D34
:106C1F00626572203A2020004F50454E494E472062
:106C2F004C4F434B0057524F4E472050494E000197
:106C3F00500210D8B41200000E056E000E046E0A3A
:106C4F00D0100E036E940EE82EFED7032EFCD70045
:106C5F00D0044A052A0150045C02500558D8B012DE
:106C6F0000EFD7050EF66E20EE01F0110E0900F5BC
:106C7F00CFDEFFE806FBE281AAFED781500F0B1390
:106C8F006E81BAFED71350010D010EF324D96E0099
:106C9F000EF420DA6EDF501200000E046E000E03A9
:106CAF006E0FD0000E066E000E056E065007E10A3D
:106CBF000E055CD8B003D0054A062AF7D7034A045D
:106CCF002A0150035C02500458D8B01200EAD700D2
:106CDF000E0C6E0AAE06D0096C0A1ED8B00A2A0135
:106CEF000E0C6E09C001F00AC002F0036A8E0E048A
:106CFF006E0CC005F0E6EC39F001C009F002C00AD5
:106D0F00F003C00BF01200A1EC35F0320E0001665B
:106D1F006F000E676F000E686F000E696F40EC3EDC
:106D2F00F066C07FF067C080F0000E4B6E400E4CD7
:106D3F006E400E4D6E7FC04EF080C04FF03DEC3A6E
:106D4F00F01B0E026E580E016E54EC36F01200A1BD
:106D5F00EC35F0320E0001666F000E676F000E68A3
:106D6F006F000E696F40EC3EF066C07FF067C08029
:106D7F00F0000E4B6E400E4C6E410E4D6E7FC04EAE
:106D8F00F080C04FF03DEC3AF01B0E026E580E0132
:106D9F006E54EC36F01200A5EC35F0320E000166A1
:106DAF006F000E676F000E686F000E696F40EC3E4C
:106DBF00F066C07FF067C080F0000E4B6EE00E4CA7
:106DCF006E400E4D6E7FC04EF080C04FF0A2EC3A79
:106DDF00F01B0E026E580E016E54EC36F01200A529
:106DEF00EC35F0320E0001666F000E676F000E6813
:106DFF006F000E696F40EC3EF066C07FF067C08099
:106E0F00F0000E4B6E400E4C6E410E4D6E7FC04E1D
:106E1F00F080C04FF0A2EC3AF01B0E026E580E013C
:106E2F006E54EC36F01200000E066E000E056E0367
:106E3F00500410D8B41CD0010E076E04D0D89003A4
:106E4F00360436072A04AEFAD7D89005360636032D
:106E5F0050015C04500258D8A005D00350015E04C5
:106E6F0050025A0580D89004320332072EEDD70511
:106E7F00C001F006C002F0120000EEE3F00A0EEEC1
:106E8F006AE806FDE15F0EF66E6B0EF76E000EF808
:106E9F006E01EE00F010EE15F00900F5CFEEFFE5F4
:106EAF0050E150FAE1120EF66E6C0EF76E000EF80E
:106EBF006E00EEB7F010EE2CF00900F5CFEEFFE507
:106ECF0050E150FAE1000EF86E100EF76E0001BAA5
:106EDF00EF35F08E0E116E06D0D8900C320B320AB1
:106EEF00320932112A000E09140D6E000E0A140E0B
:106EFF006E000E0B140F6EFF0E0C14106E0D500E55
:106F0F00100F101010D8A4E8D709C001F00AC00262
:106F1F00F00BC003F011C004F0000E056EE6EC3963
:106F2F00F001C009F002C00AF003C00BF012000319
:106F3F006E839C3F0E026E550EE82EFED7022EFC7E
:106F4F00D700F003C004F004380F0B046E04500F89
:106F5F000B836E7D0E026EAC0EE82EFED7022EFC5A
:106F6F00D7D4EC35F07D0E026EAC0EE82EFED702B4
:106F7F002EFCD703C004F004500F0B836E7D0E025E
:106F8F006EAC0EE82EFED7022EFCD7D4EC35F07D7A
:106F9F000E026EAC0EE82EFED7022EFCD7120000AA
:106FAF000E956E000E836E8398839C839A000E0756
:106FBF006E000E066E07BE06D007500FE1640E0678
:106FCF005CD8B00BD09C0E056ED70EE82EFED70501
:106FDF002EFCD700F0064A072AEDD7330E9FEC3769
:106FEF00F0320E9FEC37F0280E9FEC37F00E0E9F0D
:106FFF00EC37F0060E9FEC37F0010E9FEC37F09C4C
:10700F000E056ED70EE82EFED7052EFCD700F01218
:10701F0000000E546E8E0E536E4EAE11D04E1E4D9E
:10702F001E4C1E4B6C000E4C224D224E22010E5454
:10703F006E06D0D8904E324D324C324B32532A001E
:10704F000E4B144F6E000E4C14506E000E4D14511B
:10705F006EFF0E4E14526E4F50501051105210D8EA
:10706F00A4E8D74BC001F04CC002F04DC003F05361
:10707F00C004F054C005F0E6EC39F001C04BF0024B
:10708F00C04CF003C04DF01200015002100310D895
:10709F00A409D004C0D9FF05C0DAFF000EDE6E00D0
:1070AF000EDD6E120003507F0B066E076AD8900636
:1070BF0036073604C0D9FF05C0DAFF06C0DEFF076A
:1070CF00C0DDFF02AE03D0066A062A01D0066A06AB
:1070DF005004C0D9FF05C0DAFFDE12000EDD120426
:1070EF00C0D9FF05C0DAFF820EDE26FF0EDD2203B8
:1070FF00800382038403860388038A039C029E1203
:10710F000008C00CF009C00DF00CC001F00DC0025A
:10711F00F0000E046E140E036E1BEC37F001C00C62
:10712F00F002C00DF0095004E1050E085CD8A01262
:10713F0000095008E10A0E085CD8B004D01C0EE814
:10714F002EFED71200095008E1140E085CD8B004C7
:10715F00D03C0EE82EFED71200000E0B6E000E0A6A
:10716F006E05D0500EE82EFED70A4A0B2A0C500A95
:10717F005C0D500B58D8B01200F4D755C001F05623
:10718F00C002F057C003F05B0E046E000E056E4C8C
:10719F00EC38F05CAE07D0000E556E000E566E0048
:1071AF000E576E12005C5004E1150E5B5CD8A00701
:1071BF00D055C055F056C056F057C057F012005575
:1071CF00C03CF056C03DF057C03EF0F4EC3BF03CF5
:1071DF00C04BF03DC04CF03EC04DF03FC04EF010E4
:1071EF00EC38F04BC058F04CC059F04DC05AF05825
:1071FF00C055F059C056F05AC057F0120060C05534
:10720F00F061C056F062C057F0C5EC38F055C05D64
:10721F00F056C05EF057C05FF0E5EC35F05DC02171
:10722F00F05EC022F05FC023F060C024F061C02583
:10723F00F062C026F06EEC3CF021C063F022C06417
:10724F00F023C065F060C021F061C022F062C0235E
:10725F00F063C024F064C025F065C026F06EEC3CEE
:10726F00F021C060F022C061F023C062F060C05511
:10727F00F061C056F062C057F0C5EC38F055C060F1
:10728F00F056C061F057C062F01200036E838C3F5E
:10729F000E026E550EE82EFED7022EFCD700F0031D
:1072AF00C004F004380F0B046E04500F0B836E7D77
:1072BF000E026EAC0EE82EFED7022EFCD7838C7D0D
:1072CF000E026EAC0EE82EFED7022EFCD7D4EC3594
:1072DF00F07D0E026EAC0EE82EFED7022EFCD70309
:1072EF00C004F004500F0B836E7D0E026EAC0EE8DF
:1072FF002EFED7022EFCD7838C9C0E026ED70EE883
:10730F002EFED7022EFCD700F0D4EC35F09C0E02E7
:10731F006ED70EE82EFED7022EFCD700F012009289
:10732F00829294928892960F0EC16E8098D7EC3706
:10733F00F0000E0F6E000E0E6E8084000E096E0AA6
:10734F000E086E88EC38F08094000E026E010E016C
:10735F006E1FEC36F080A2FED7000E0F6E000E0EE1
:10736F006E08D0000E096E3A0E086E88EC38F00EDB
:10737F004A0F2A80A206D00F5004E1C80E0E5CD827
:10738F00A0F0D7809607D08086000E026E640E01A3
:10739F006E1FEC36F080B8F7D70F5007E1060E0ED0
:1073AF005CD8B003D09DEC35F012009FEC35F000A7
:1073BF000E026E640E016E1FEC36F0BAD70450D871
:1073CF00B405D0015002100310D8A40CD0000E0148
:1073DF006E000E026E000E036E1200042AD8900388
:1073EF003202320132000E0114066E000E02140733
:1073FF006EFE0E0314086E065007100810D8B40C5A
:10740F00D0ECD7042A010E0126000E0222000E0333
:10741F0022D890033202320132000E0114066E00A0
:10742F000E0214076EFF0E0314086E0650071008A5
:10743F0010D8B406D0E6D70406D89001360236032A
:10744F003602BE03D0020E0460F6D704A0029ED807
:10745F00900432045003120550D8A4038E01C001CA
:10746F00F002C002F003C003F01200000E156EC848
:10747F000E166E420E176E4BC012F04CC013F04D2D
:10748F00C014F007EC3BF012C030F013C031F01411
:10749F00C032F0000E246E800E256E3F0E266E4E0B
:1074AF00C009F04FC00AF06FEC36F009C021F00AA6
:1074BF00C022F00BC023F06EEC3CF021C02DF02267
:1074CF00C02EF023C02FF07AEC3BF02DC052F02EDF
:1074DF00C053F02FC054F0000E306E800E316E404E
:1074EF000E326E52C02DF053C02EF054C02FF07AD2
:1074FF00EC3BF02DC03CF02EC03DF02FC03EF0F421
:10750F00EC3BF03CC055F03DC056F055C050F05626
:10751F00C051F051345132503251345132503250F7
:10752F0050BB6E55C050F0030E50165038F00B0C78
:10753F0009BA6E1200000E156EC80E166E420E17A7
:10754F006E4BC012F04CC013F04DC014F007EC3B63
:10755F00F012C030F013C031F014C032F0000E241E
:10756F006E800E256E3F0E266E4EC009F04FC00A7C
:10757F00F06FEC36F009C021F00AC022F00BC023E7
:10758F00F06EEC3CF021C02DF022C02EF023C02F66
:10759F00F07AEC3BF02DC052F02EC053F02FC054B8
:1075AF00F0000E306E800E316E400E326E52C02DD6
:1075BF00F053C02EF054C02FF07AEC3BF02DC03CAE
:1075CF00F02EC03DF02FC03EF0F4EC3BF03CC05528
:1075DF00F03DC056F055C050F056C051F0513451E7
:1075EF003250325134513250325050BE6E55C0501D
:1075FF00F0030E50165038F00B0C09BD6E1200142C
:10760F00C018F0196A1A6A1334183601E319801872
:10761F00501F6E1F50D8A407D0000E126E000E130D
:10762F006E000E146E120017C018F0196A1A6A163F
:10763F0034183601E319801850206E2050D8A40753
:10764F00D0000E126E000E136E000E146E1200009C
:10765F000E1C6E000E1D6E000E1E6E2050890F1F29
:10766F005E14C020F01750201A800E2016138EFFC4
:10767F000E1216FF0E1316000E1416168EFF0E1591
:10768F0016FF0E1616000E1716180E1B6ED8901C2E
:10769F00361D361E361550125C16501358175014DF
:1076AF0058D8A007D01550125E1650135A17501401
:1076BF005A1C80D8901236133614361B2EE7D71C5F
:1076CF00C001F01DC002F01EC003F01FC004F02067
:1076DF00C005F0E6EC39F001C012F002C013F00360
:1076EF00C014F012002FC033F0346A356A2E3433D1
:1076FF003601E334803350366E3650D8A407D000AD
:10770F000E2D6E000E2E6E000E2F6E120032C03335
:10771F00F0346A356A3134333601E3348033503B09
:10772F006E3B50D8A407D0000E2D6E000E2E6E00AB
:10773F000E2F6E12003B507B0F36262FC03BF032C0
:10774F00503B1A800E3B162E8E318EFF0E3016FFD9
:10775F000E3116000E3216000E376E000E386E0008
:10776F000E396E070E3A6E2DA006D03050372631E7
:10777F0050382232503922D8902F322E322D32D813
:10778F00903036313632363A2EEED7090E3A6E2D0C
:10779F00A006D0305037263150382232503922D8F7
:1077AF00902F322E322D32D8903932383237323A3A
:1077BF002EEED737C001F038C002F039C003F036D3
:1077CF00C004F03BC005F0E6EC39F001C02DF0022B
:1077DF00C02EF003C02FF012003EC040F0416A42AD
:1077EF006A3D34403601E3418040504A6E4A50D8DA
:1077FF00A409D0000E3C6E000E3D6E000E3E6E00D2
:10780F000E3F6E1200170E406E3CC041F03DC0425D
:10781F00F03EC043F04028446E04D0D8904332422B
:10782F00324132442EFAD74150456E3D8EFF0E3C09
:10783F0016FF0E3D16000E3E163C50466E3D50474D
:10784F006E3E50486E496A8E0E4A5E4AAE16D04A58
:10785F0050800A8F0FD8B009D0000E3C6E000E3D3D
:10786F006E000E3E6E000E3F6E1200D890493248E9
:10787F0032473246324A3EF9D715D0170E4A640FB7
:10788F00D0000E3C6E000E3D6E000E3E6E000E3FA1
:10789F006E1200D89046364736483649364A064A61
:1078AF0050D8A4F7D74550D8B408D0491E481E4722
:1078BF001E466C000E47224822492246C03CF04724
:1078CF00C03DF048C03EF049C03FF0120023C02732
:1078DF00F0286A296A2234273601E3288027502CA2
:1078EF006E26C027F0286A296A2534273601E32837
:1078FF008027502B6E2C50D8B40BD02B502C5CD82B
:10790F00B00ED02C5000082B24276E180E276407BA
:10791F00D024C021F025C022F026C023F012002B66
:10792F0050D8B40BD02C502B5CD8B00ED02B5000AD
:10793F00082C24276E180E276407D021C021F022AF
:10794F00C022F023C023F01200060E2A6E23BE2A97
:10795F008E26BE2A8C228EFF0E2116FF0E221600B7
:10796F000E2316258EFF0E2416FF0E2516000E264B
:10797F00162B502C5CD8B01BD0D890243625362629
:10798F00362B062C502B18D8B40DD02A062AC02718
:10799F00F0070E2716D8B406D0EFD7D8902332228F
:1079AF003221322C2A2B502C18D8B41FD0F6D72CBA
:1079BF00502B5CD8B01AD0D8902136223623362CD3
:1079CF00062C502B18D8B40DD02A062AC027F00742
:1079DF000E2716D8B406D0EFD7D8902632253224EA
:1079EF00322B2A2B502C18D8A4F7D72AAE0CD0FF45
:1079FF000E211AFF0E221AFF0E231A010E21260046
:107A0F000E2222000E23222AAC0CD0FF0E241AFFC6
:107A1F000E251AFF0E261A010E2426000E2522000F
:107A2F000E2622000E2A6E215024262250252223B4
:107A3F0050262226AE0ED0FF0E241AFF0E251AFF57
:107A4F000E261A010E2426000E2522000E262201D4
:107A5F000E2A6E24C001F025C002F026C003F02CC0
:107A6F00C004F02AC005F0E6EC39F001C021F002A5
:107A7F00C022F003C023F0120092800F0EC16ED708
:107A8F00EC37F0C6EC35F09DEC35F0010E9FEC377E
:107A9F00F0800E9FEC37F020EEB7F010EE81F0146F
:107AAF000EDBCFE3FFE806FCE2000E0001B26F0031
:107ABF000EB16F0ED0810E0001B125D96E000E00F0
:107ACF0001B221DA6EDF504DEC39F00001B14BB24B
:107ADF002B810E0001B125D96E000E0001B221DA03
:107AEF006EDF50D8A4E7D7C00E9FEC37F039EC36D5
:107AFF00F00001AD6F2A0E4DEC39F039EC36F00085
:107B0F0001AE6F2A0E4DEC39F039EC36F00001AFB3
:107B1F006F2A0E4DEC39F039EC36F00001B06F2AB8
:107B2F000E4DEC39F0340E0001AD19D8A457D035F5
:107B3F000E0001AE19D8A452D0350E0001AF19D8DE
:107B4F00A44DD0300E0001B019D8A448D0010E9F1B
:107B5F00EC37F0800E9FEC37F020EECCF010EE9665
:107B6F00F00C0EDBCFE3FFE806FCE2000E0001B4E1
:107B7F006F000EB36F0ED0960E0001B325D96E00B5
:107B8F000E0001B421DA6EDF504DEC39F00001B375
:107B9F004BB42B960E0001B325D96E000E0001B425
:107BAF0021DA6EDF50D8A4E7D7030E026EE80E017C
:107BBF006E1FEC36F0F7EC36F0AFEC36F0010E9F9F
:107BCF00EC37F080A0FED78BEC36F0D3EC36F00319
:107BDF000E026EE80E016E1FEC36F012000001E58A
:107BEF004BE62B010E9FEC37F0800E9FEC37F02009
:107BFF00EED9F010EEA3F0090EDBCFE3FFE806FCA1
:107C0F00E2000E0001B66F000EB56F0ED0A30E008E
:107C1F0001B525D96E000E0001B621DA6EDF504D89
:107C2F00EC39F00001B54BB62BA30E0001B525D9E9
:107C3F006E000E0001B621DA6EDF50D8A4E7D70030
:107C4F0001E5514DEC39F0070E026ED00E016E1F9B
:107C5F00EC36F00001E6BF19D70001E65105E1034C
:107C6F000E0001E55DD8A011D7310EA9EC35F00D4E
:107C7F00D7E80E00017B6F010E7C6F000E7D6F0049
:107C8F000E7E6F000169510001681112E1400E0074
:107C9F0001665D1F0E00016759D8B00AD0000E00B3
:107CAF00016F6F020E6E6F000E0001716F100E09E3
:107CBF00D0000E00016F6F000E6E6F000E0001718D
:107CCF006F010E706F0001665100017B5D0001674F
:107CDF005100017C590001685100017D5900016973
:107CEF005100017E59D8B00CD0000E0001776F07FC
:107CFF000E766F000E0001726F120E736F7A0EE325
:107D0F00D00001D8907E337D337C337B3300016606
:107D1F005100017B5D0001675100017C5900016832
:107D2F005100017D590001695100017E59D8B00CF5
:107D3F00D0000E0001776F060E766F000E000172F5
:107D4F006F090E736F3D0EBFD00001D8907E337D4B
:107D5F00337C337B330001665100017B5D0001678B
:107D6F005100017C590001685100017D59000169E2
:107D7F005100017E59D8B00CD0000E0001776F056D
:107D8F000E766F800E0001726F840E736F1E0E9B46
:107D9F00D00001D8907E337D337C337B3300016676
:107DAF005100017B5D0001675100017C59000168A2
:107DBF005100017D590001695100017E59D8B00C65
:107DCF00D0000E0001776F040E766F400E00017227
:107DDF006F420E736F0F0E77D00001D8907E337DF8
:107DEF00337C337B330001665100017B5D000167FB
:107DFF005100017C590001685100017D5900016952
:107E0F005100017E59D8B00CD0000E0001776F03DE
:107E1F000E766F200E0001726FA10E736F070E5357
:107E2F00D00001D8907E337D337C337B33000166E5
:107E3F005100017B5D0001675100017C5900016811
:107E4F005100017D590001695100017E59D8B00CD4
:107E5F00D0000E0001776F020E766F900E00017248
:107E6F006FD00E736F030E2FD00001D8907E337D2D
:107E7F00337C337B330001665100017B5D0001676A
:107E8F005100017C590001685100017D59000169C1
:107E9F005100017E59D8B00CD0000E0001776F0150
:107EAF000E766F480E0001726FE80E736F010E0BA6
:107EBF00D0000E0001776F000E766F180E00017262
:107ECF006F790E736F000E746F000E756F66C009B9
:107EDF00F067C00AF068C00BF069C00CF071EC37A6
:107EEF00F009C030F00AC031F00BC032F070C00999
:107EFF00F071C00AF06FEC36F009C02DF00AC02EF9
:107F0F00F00BC02FF07AEC3BF02DC06BF02EC06C55
:107F1F00F02FC06DF0000E306E800E316E400E32BD
:107F2F006E6BC02DF06CC02EF06DC02FF07AEC3B55
:107F3F00F02DC015F02EC016F02FC017F072C0092B
:107F4F00F073C00AF074C00BF075C00CF071EC3711
:107F5F00F009C012F00AC013F00BC014F007EC3B8D
:107F6F00F012C021F013C022F014C023F0000E2431
:107F7F006E800E256EBF0E266E6EEC3CF021C07823
:107F8F00F022C079F023C07AF078C060F079C06138
:107F9F00F07AC062F006EC39F060C078F061C07919
:107FAF00F062C07AF076C06AF0070E00016A17001F
:107FBF00016A39F00B0209D36E78C03CF079C03DED
:107FCF00F07AC03EF0F4EC3BF03C50CB6E6EC0CA82
:107FDF00FF000ECC6ECA8478C03CF079C03DF07AB9
:107FEF00C03EF0F4EC3BF03CC066F03DC067F012D1
:027FFF0000FF81
:020000040020DA
:08000000FFFFFFFFFFFFFFFF00
:020000040030CA
:0E000000000C1F1EFF8181FF0FC00FE00F409C
:00000001FF
