:10100000C3EF3EF000313233463435364537383998
:0810100044413042432000007E
:107D0800839E1200838E1200020E946EB7EC3FF031
:027D1800FDD795
:107D1B00456E7465722050494E206E756D626572AA
:107D2B00203A20200083887D0E166EAC0EE82EFEC6
:107D3B00D7162EFCD783987D0E166EAC0EE82EFE52
:107D4B00D7162EFCD7120016501710D8B4120000FD
:107D5B000E1A6E000E196E0AD0100E186E940EE8E5
:107D6B002EFED7182EFCD700D0194A1A2A165019F6
:107D7B005C17501A58D8B01200EFD700EE27F00955
:107D8B000EEE6AE806FDE11B0EF66E7D0EF76E0039
:107D9B000EF86E00EE01F010EE15F00900F5CFEEC7
:107DAB00FFE550E150FAE1000EF86E100EF76E0091
:107DBB000188EF3EF0000E1B6E000E1A6E18501964
:107DCB0010D8B41CD0010E1C6E04D0D890183619E4
:107DDB00361C2A19AEFAD7D8901A361B36185016FD
:107DEB005C19501758D8A005D01850165E195017AB
:107DFB005A1A80D890193218321C2EEDD71AC01689
:107E0B00F01BC017F01200186E839C3F0E176E55B7
:107E1B000EE82EFED7172EFCD700F018C019F0195C
:107E2B00380F0B196E19500F0B836E7D0E176EAC3E
:107E3B000EE82EFED7172EFCD798EC3EF07D0E17D2
:107E4B006EAC0EE82EFED7172EFCD718C019F01902
:107E5B00500F0B836E7D0E176EAC0EE82EFED717F0
:107E6B002EFCD798EC3EF07D0E176EAC0EE82EFE76
:107E7B00D7172EFCD71200000E956E000E836E8363
:107E8B0098839C839A000E1C6E000E1B6E1CBE0604
:107E9B00D01C500FE1640E1B5CD8B00BD09C0E1A9B
:107EAB006ED70EE82EFED71A2EFCD700F01B4A1CFD
:107EBB002AEDD7330E09EC3FF0320E09EC3FF028D8
:107ECB000E09EC3FF00E0E09EC3FF0060E09EC3FED
:107EDB00F0010E09EC3FF09C0E1A6ED70EE82EFE49
:107EEB00D71A2EFCD700F012001DC021F01EC022A5
:107EFB00F021C016F022C017F0000E196E140E18E8
:107F0B006EE0EC3EF016C021F017C022F01E5004BC
:107F1B00E1050E1D5CD8A012001E5008E10A0E1DD3
:107F2B005CD8B004D01C0EE82EFED712001E5008F1
:107F3B00E1140E1D5CD8B004D03C0EE82EFED71217
:107F4B0000000E206E000E1F6E05D0500EE82EFEA8
:107F5B00D71F4A202A21501F5C22502058D8B0121C
:107F6B0000F4D70F0EC16E9292928441EC3FF00059
:107F7B000E266E000E256E8082000E1E6E0A0E1DE2
:107F8B006E7AEC3FF08092000E176E010E166EA902
:107F9B00EC3EF080A4FED7000E266E000E256E0878
:107FAB00D0000E1E6E3A0E1D6E7AEC3FF0254A265F
:107FBB002A80A406D0265004E1C80E255CD8A0F078
:107FCB00D725C016F026C017F0000E196E3A0E1802
:107FDB006EE0EC3EF016C023F017C024F0245007DF
:107FEB00E1060E235CD8B003D086EC3EF0C0D784FC
:067FFB00EC3EF01200FF55
:020000040020DA
:08000000FFFFFFFFFFFFFFFF00
:020000040030CA
:0E00000000051F1FFF8385FF0FC00FE00F409C
:00000001FF
