:10100000BBEF39F0003132334634353645373839A5
:0810100044413042432000007E
:1072BC0094920C0EBD6E1200020E946E7EEC3AF09F
:0272CC00FDD7EC
:1072CF00456E7465722050494E206E756D62657201
:1072DF00203A202000515052105310D8B406D0003D
:1072EF000E511A000E521A800E531A51C051F052FD
:1072FF00C052F053C053F01200000E046E000E0384
:10730F006E0FD0000E066E000E056E065007E10AD6
:10731F000E055CD8B003D0054A062AF7D7034A04F6
:10732F002A0150035C02500458D8B01200EAD7006B
:10733F000E0C6E0AAE06D0096C0A1ED8B00A2A01CE
:10734F000E0C6E09C001F00AC002F0036A8E0E0423
:10735F006E0CC005F042EC3BF001C009F002C00A10
:10736F00F003C00BF0120000EE96F0090EEE6AE883
:10737F0006FDE1CF0EF66E720EF76E000EF86E0080
:10738F00EE81F010EE15F00900F5CFEEFFE550E1BC
:10739F0050FAE1000EF86E100EF76E000162EF3931
:1073AF00F08E0E116E06D0D8900C320B320A3209C5
:1073BF0032112A000E09140D6E000E0A140E6E0003
:1073CF000E0B140F6EFF0E0C14106E0D500E100FCF
:1073DF00101010D8A4E8D709C001F00AC002F00BB2
:1073EF00C003F011C004F0000E056E42EC3BF0013B
:1073FF00C009F002C00AF003C00BF01200000E48E3
:10740F006E8E0E476E42AE11D0421E411E401E3F81
:10741F006C000E402241224222010E486E06D0D847
:10742F00904232413240323F32472A000E3F1443DE
:10743F006E000E4014446E000E4114456EFF0E4256
:10744F0014466E4350441045104610D8A4E8D73F59
:10745F00C001F040C002F041C003F047C004F04843
:10746F00C005F042EC3BF001C03FF002C040F0031A
:10747F00C041F01200015002100310D8A409D0042B
:10748F00C0D9FF05C0DAFF000EDE6E000EDD6E12F2
:10749F000003507F0B066E076AD890063607360436
:1074AF00C0D9FF05C0DAFF06C0DEFF07C0DDFF024F
:1074BF00AE03D0066A062A01D0066A065004C0D968
:1074CF00FF05C0DAFFDE12000EDD1204C0D9FF0582
:1074DF00C0DAFF820EDE26FF0EDD22038003820359
:1074EF008403860388038A039C029E12005EEC3994
:1074FF00F0320E0001666F000E676F000E686F00AE
:10750F000E696F40EC3EF066C07FF067C080F00000
:10751F000E0001606F400E0001616F400E000162AE
:10752F006F7FC063F080C064F099EC3BF0030E02F4
:10753F006EE80E016E84EC39F0000E0001606FE012
:10754F000E0001616F400E0001626F7FC063F0801B
:10755F00C064F099EC3BF0030E026EE80E016E84EE
:10756F00EC39F0120049C001F04AC002F04BC003E1
:10757F00F04F0E046E000E056E42EC3AF050AE075F
:10758F00D0000E496E000E4A6E000E4B6E12005068
:10759F005004E1150E4F5CD8A007D049C049F04AFE
:1075AF00C04AF04BC04BF0120049C030F04AC03116
:1075BF00F04BC032F0F0EC3CF030C03FF031C04047
:1075CF00F032C041F033C042F006EC3AF03FC04C0D
:1075DF00F040C04DF041C04EF04CC049F04DC04A94
:1075EF00F04EC04BF0120060C049F061C04AF0622B
:1075FF00C04BF0BAEC3AF049C051F04AC052F04BD0
:10760F00C053F072EC39F051C054F052C055F053E2
:10761F00C056F060C057F061C058F062C059F06AB0
:10762F00EC3DF054C063F055C064F056C065F06097
:10763F00C054F061C055F062C056F063C057F0649B
:10764F00C058F065C059F06AEC3DF054C060F05579
:10765F00C061F056C062F060C049F061C04AF0628C
:10766F00C04BF0BAEC3AF049C060F04AC061F04B41
:10767F00C062F012000450D8B405D00150021003BC
:10768F0010D8A40CD0000E016E000E026E000E0377
:10769F006E1200042AD890033202320132000E011A
:1076AF0014066E000E0214076EFE0E0314086E060B
:1076BF005007100810D8B40CD0ECD7042A010E01D3
:1076CF0026000E0222000E0322D89003320232014E
:1076DF0032000E0114066E000E0214076EFF0E0329
:1076EF0014086E065007100810D8B406D0E6D70459
:1076FF0006D89001360236033602BE03D0020E04BE
:10770F0060F6D704A0029ED89004320450031205ED
:10771F0050D8A4038E01C001F002C002F003C003D1
:10772F00F01200000E246EC80E256E420E266E60FB
:10773F00C021F061C022F062C023F003EC3CF021C5
:10774F00C015F022C016F023C017F0000E576E8040
:10775F000E586E3F0E596E63C009F064C00AF09F59
:10776F00EC39F009C054F00AC055F00BC056F06A5E
:10777F00EC3DF054C012F055C013F056C014F07623
:10778F00EC3CF012C067F013C068F014C069F00051
:10779F000E156E800E166E400E176E67C012F068D3
:1077AF00C013F069C014F076EC3CF012C030F01347
:1077BF00C031F014C032F0F0EC3CF030C06AF03160
:1077CF00C06BF06AC065F06BC066F000016635668D
:1077DF00336533000166356633653300016551BB90
:1077EF006E6AC065F0030E0001651700016539F080
:1077FF000B0C09BA6E120023C027F0286A296A22DF
:10780F0034273601E3288027502E6E2E50D8A40738
:10781F00D0000E216E000E226E000E236E12002677
:10782F00C027F0286A296A2534273601E3288027E4
:10783F00502F6E2F50D8A407D0000E216E000E22AD
:10784F006E000E236E1200000E2B6E000E2C6E00BB
:10785F000E2D6E2F50890F2E5E23C02FF026502F26
:10786F001A800E2F16228EFF0E2116FF0E221600E3
:10787F000E2316258EFF0E2416FF0E2516000E263C
:10788F0016180E2A6ED8902B362C362D36245021F2
:10789F005C2550225826502358D8A007D0245021B9
:1078AF005E2550225A2650235A2B80D890213622FB
:1078BF003623362A2EE7D72BC001F02CC002F02D2D
:1078CF00C003F02EC004F02FC005F042EC3BF001D6
:1078DF00C021F002C022F003C023F0120014C01820
:1078EF00F0196A1A6A1334183601E3198018501BFD
:1078FF006E1B50D8A407D0000E126E000E136E0030
:10790F000E146E120017C018F0196A1A6A1634187E
:10791F003601E319801850206E2050D8A407D000EC
:10792F000E126E000E136E000E146E120020507B9E
:10793F000F1B2614C020F01750201A800E2016138C
:10794F008E168EFF0E1516FF0E1616000E1716004A
:10795F000E1C6E000E1D6E000E1E6E070E1F6E1299
:10796F00A006D015501C2616501D2217501E22D8C7
:10797F0090143213321232D8901536163617361F2E
:10798F002EEED7090E1F6E12A006D015501C26160C
:10799F00501D2217501E22D890143213321232D893
:1079AF00901E321D321C321F2EEED71CC001F01D4F
:1079BF00C002F01EC003F01BC004F020C005F0424F
:1079CF00EC3BF001C012F002C013F003C014F01230
:1079DF000032C034F0356A366A3134343601E3355B
:1079EF008034503E6E3E50D8A409D0000E306E0049
:1079FF000E316E000E326E000E336E1200170E3403
:107A0F006E30C035F031C036F032C037F034283820
:107A1F006E04D0D890373236323532382EFAD73509
:107A2F0050396E318EFF0E3016FF0E3116000E32AA
:107A3F001630503A6E31503B6E32503C6E3D6A8E6E
:107A4F000E3E5E3EAE16D03E50800A8F0FD8B00964
:107A5F00D0000E306E000E316E000E326E000E33FF
:107A6F006E1200D8903D323C323B323A323E3EF9F4
:107A7F00D715D0170E3E640FD0000E306E000E31AA
:107A8F006E000E326E000E336E1200D8903A363BF7
:107A9F00363C363D363E063E50D8A4F7D73950D83F
:107AAF00B408D03D1E3C1E3B1E3A6C000E3B223CE0
:107ABF00223D223AC030F03BC031F03CC032F03DA5
:107ACF00C033F0120056C05AF05B6A5C6A55345AE4
:107ADF003601E35B805A505F6E59C05AF05B6A5CA7
:107AEF006A58345A3601E35B805A505E6E5F50D845
:107AFF00B40BD05E505F5CD8B00ED05F5000085E04
:107B0F00245A6E180E5A6407D057C054F058C055F7
:107B1F00F059C056F012005E50D8B40BD05F505ED3
:107B2F005CD8B00ED05E5000085F245A6E180E5A03
:107B3F006407D054C054F055C055F056C056F012DB
:107B4F0000060E5D6E56BE5D8E59BE5D8C558EFF66
:107B5F000E5416FF0E5516000E5616588EFF0E5762
:107B6F0016FF0E5816000E59165E505F5CD8B01BEC
:107B7F00D0D8905736583659365E065F505E18D8B3
:107B8F00B40DD05D065DC05AF0070E5A16D8B40674
:107B9F00D0EFD7D8905632553254325F2A5E505FAD
:107BAF0018D8B41FD0F6D75F505E5CD8B01AD0D8B3
:107BBF00905436553656365F065F505E18D8B40D62
:107BCF00D05D065DC05AF0070E5A16D8B406D0EF36
:107BDF00D7D8905932583257325E2A5E505F18D834
:107BEF00A4F7D75DAE0CD0FF0E541AFF0E551AFF37
:107BFF000E561A010E5426000E5522000E56225D07
:107C0F00AC0CD0FF0E571AFF0E581AFF0E591A015F
:107C1F000E5726000E5822000E5922000E5D6E548C
:107C2F00505726555058225650592259AE0ED0FF54
:107C3F000E571AFF0E581AFF0E591A010E5726002B
:107C4F000E5822000E5922010E5D6E57C001F058DA
:107C5F00C002F059C003F05FC004F05DC005F042F0
:107C6F00EC3BF001C054F002C055F003C056F012C7
:107C7F0000E80E00017B6F010E7C6F000E7D6F0020
:107C8F000E7E6F000169510001681112E1400E0074
:107C9F0001665D1F0E00016759D8B00AD0000E00B3
:107CAF00016F6F020E6E6F000E0001716F100E09E3
:107CBF00D0000E00016F6F000E6E6F000E0001718D
:107CCF006F010E706F0001665100017B5D0001674F
:107CDF005100017C590001685100017D5900016973
:107CEF005100017E59D8B00CD0000E0001776F07FC
:107CFF000E766F000E0001726F120E736F7A0EE325
:107D0F00D00001D8907E337D337C337B3300016606
:107D1F005100017B5D0001675100017C5900016832
:107D2F005100017D590001695100017E59D8B00CF5
:107D3F00D0000E0001776F060E766F000E000172F5
:107D4F006F090E736F3D0EBFD00001D8907E337D4B
:107D5F00337C337B330001665100017B5D0001678B
:107D6F005100017C590001685100017D59000169E2
:107D7F005100017E59D8B00CD0000E0001776F056D
:107D8F000E766F800E0001726F840E736F1E0E9B46
:107D9F00D00001D8907E337D337C337B3300016676
:107DAF005100017B5D0001675100017C59000168A2
:107DBF005100017D590001695100017E59D8B00C65
:107DCF00D0000E0001776F040E766F400E00017227
:107DDF006F420E736F0F0E77D00001D8907E337DF8
:107DEF00337C337B330001665100017B5D000167FB
:107DFF005100017C590001685100017D5900016952
:107E0F005100017E59D8B00CD0000E0001776F03DE
:107E1F000E766F200E0001726FA10E736F070E5357
:107E2F00D00001D8907E337D337C337B33000166E5
:107E3F005100017B5D0001675100017C5900016811
:107E4F005100017D590001695100017E59D8B00CD4
:107E5F00D0000E0001776F020E766F900E00017248
:107E6F006FD00E736F030E2FD00001D8907E337D2D
:107E7F00337C337B330001665100017B5D0001676A
:107E8F005100017C590001685100017D59000169C1
:107E9F005100017E59D8B00CD0000E0001776F0150
:107EAF000E766F480E0001726FE80E736F010E0BA6
:107EBF00D0000E0001776F000E766F180E00017262
:107ECF006F790E736F000E746F000E756F66C009B9
:107EDF00F067C00AF068C00BF069C00CF0D8EC393D
:107EEF00F009C015F00AC016F00BC017F070C009EA
:107EFF00F071C00AF09FEC39F009C012F00AC013FC
:107F0F00F00BC014F076EC3CF012C06BF013C06CA9
:107F1F00F014C06DF0000E156E800E166E400E1729
:107F2F006E6BC012F06CC013F06DC014F076EC3CA9
:107F3F00F012C024F013C025F014C026F072C0094F
:107F4F00F073C00AF074C00BF075C00CF0D8EC39A8
:107F5F00F009C021F00AC022F00BC023F003EC3C63
:107F6F00F021C054F022C055F023C056F0000E5738
:107F7F006E800E586EBF0E596E6AEC3DF054C0788D
:107F8F00F055C079F056C07AF078C060F079C061D2
:107F9F00F07AC062F0FBEC3AF060C078F061C07923
:107FAF00F062C07AF076C06AF0070E00016A17001F
:107FBF00016A39F00B0209D36E78C030F079C03105
:107FCF00F07AC032F0F0EC3CF03050CB6E6EC0CA9D
:107FDF00FF000ECC6ECA8478C030F079C031F07AD1
:107FEF00C032F0F0EC3CF030C066F031C067F012F8
:027FFF0000FF81
:020000040020DA
:08000000FFFFFFFFFFFFFFFF00
:020000040030CA
:0E00000000051F1FFF8385FF0FC00FE00F409C
:00000001FF
